:020000040800F2
:10000000600D002019020008915F000855390008B2
:1000100085560008150F0008CD620008000000009A
:10002000000000000000000000000000B5620008B1
:100030003110000800000000955F0008B962000858
:1000400033020008330200083302000833020008BC
:1000500033020008330200083302000833020008AC
:10006000330200083302000833020008190F0008A9
:10007000330200083302000833020008330200088C
:10008000330200083302000833020008330200087C
:10009000330200083302000833020008351000085C
:1000A000330200083302000833020008330200085C
:1000B0003302000833020008C1620008330200085E
:1000C000330200083302000833020008330200083C
:1000D000330200083302000833020008330200082C
:1000E00033020008330200083302000800F002F86F
:1000F00000F083F814A696E8000CB244B344DA4545
:1001000001D100F07AF8BAE80F000FA696E83000A7
:10011000A5EB040504EB0607AAEB0704A7F101070A
:100120004FEA15154FEA3414A4F10104AC4201D38F
:1001300000F063F813F0010F18BFFB1A43F001033E
:1001400000F001F8DBE71847FCD700001CD80000DE
:100150000A444FF0000C10F8013B13F0070408BFED
:1001600010F8014B1D1108BF10F8015B641E05D08B
:1001700010F8016B641E01F8016BF9D113F0080F40
:100180001EBF10F8014BAD1C0C1B09D16D1E58BFD2
:1001900001F801CBFAD505E014F8016B01F8016B09
:1001A0006D1EF9D59142D6D370470000704700000C
:1001B0000023002400250026103A28BF78C1FBD870
:1001C000520728BF30C148BF0B607047662907F04F
:1001D0009283642900F07E80732900F01A84002045
:1001E00070471FB500F01AFC04000020002106F043
:1001F000BBFFE0601FBD10B510BD00F00FFD114644
:10020000FFF7EFFF06F076FA00F02DFD03B4FFF7DD
:10021000F2FF03BC00F070FD094880470948004721
:10022000FEE7FEE7FEE7FEE7FEE7FEE7FEE7FEE7A6
:10023000FEE7FEE704480549054A064B7047000003
:10024000BD620008ED00000860070020600D00207E
:1002500060090020600900200FB41CB5074B06AAF6
:100260007B4469460090059800F0A9FB0020694690
:1002700000F0B8FB1CBC5DF814FB00008107000017
:1002800070B50C460546012A05D02878800600D5B1
:10029000EA69002302E0012305E05B1C934202D2DD
:1002A000E05C0028F9D1A869E618C01AA861286A9C
:1002B000184428622846AFF3008004E0D5E9012104
:1002C00014F8010B9047B442F8D32846AFF30080EE
:1002D00070BD00002DE9F041064600241068752924
:1002E000314616A510D0AFF30080002802DA404254
:1002F00013A507E031688A0701D512A502E0490776
:1003000004D511A5012401E0AFF3008000210A22E9
:1003100006F1240709E0B0FBF2FCB0FBF2F302FBAC
:100320001C00303078541846491C0028F3D123466D
:100330002A463046BDE8F04100F0D5B80000000084
:100340002D0000002B000000200000002DE9F047E8
:100350004FF0000A89460446C0F820A02046E16814
:100360008847002876D0252806D0D4E90121904777
:10037000206A401C2062F1E7E1682046002588479A
:10038000C4F81CA006460027C4F818A02A2E09D0DD
:10039000304606F0E1FE38B304EB8708303EC8F87B
:1003A000186019E059F8041B204604EB870291619C
:1003B000E1688847012F064618D1E069002820DA55
:1003C00025F020051DE0D8F8180000EB800006EBB2
:1003D00040003038C8F818002046E16888470646D3
:1003E00006F0BAFE0028EED1012F0AD02E2E08D139
:1003F0002046E16888477F1C0646022F45F020050D
:10040000C4DBA069002803DA404245F00105A06181
:10041000E80701D025F01005B6B1A6F14100192872
:1004200002D8203645F400654A463146204625600C
:100430004D46FFF7CBFE58B1012806D0ED1D25F043
:10044000070000F1080989E704E005F1040985E7E0
:1004500030468AE7206ABDE8F08740EA0103024699
:1004600030B59B0710D14FF0013400E008C208C935
:100470001D1B9D4315EAC41FF8D013F0FF0102F8BD
:10048000011B0DD01B0AF8E711F8013B002B02F805
:10049000013B05D011F8013B002B02F8013BF3D1E1
:1004A00030BD10B5431C02E010F8011B71B181078B
:1004B000FAD14FF0013202C88C1A8C4314EAC211EF
:1004C000F9D0C01A0A0603D0C01E10BDC01A10BD54
:1004D0000A0401D0801E10BD0902FCD0401E10BDD0
:1004E0007047704770472DE9F0470D469946924690
:1004F000044600F124080168880604D5E06921F06B
:100500001001216000E00120A84201DD471B00E04E
:100510000027A1697A1902EB0900081AA061207866
:10052000C00602D42046AFF30080002608E0D4E9DC
:1005300001211AF806009047206A401C761C2062B0
:100540004E45F4DB2078C0060AD52046AFF3008084
:1005500006E0D4E9012130209047206A401C206247
:10056000381EA7F10107F4DC07E0D4E9012118F8EF
:1005700005009047206A401C2062281EA5F1010555
:10058000F3DC2046AFF300802078000602D502207D
:10059000BDE8F0870120FBE72DE9FF4F0C461E4622
:1005A0004FF0FF378BB0D2E90001DDF860800A9090
:1005B0008A46C1F30A5505B93D46002108464FF069
:1005C0000000BAF1000F00F4400005DA00EB8000F3
:1005D0004FF4400101EA50004FEA9059B9F1010F80
:1005E00000DDB9460A9850EA4A000ED044F6105091
:1005F000A5F2FF3545432F14B8F1000F1ED0754208
:10060000291E1EDDC9F100021CE0B8F1010F4FF0F8
:10061000000001D0302103E0F24305E02154401CEA
:10062000B042FBDB30460022002121540B99C1F877
:100630000880C1E900200FB0BDE8F08FBD1B6D1C24
:10064000DEE74A4600DA694206A800F071FA06AB16
:1006500093E8070003AB83E8070050460A9906F0C9
:100660009EF98DE80700A0F500501F380090039810
:10067000002D0ADD42F21F014A460844002303A967
:100680000390684606F008FC09E0A0F500504A46D1
:100690001F38002303A90390684606F012FC8DE87A
:1006A00007000004000C03D04FF0FF30410800E0C9
:1006B0001046B8F1000F03D00022009215461EE04C
:1006C000751E05D400F0AEF9303262556D1EF9D5B5
:1006D000B3460122084302D000227F1C04E02078A8
:1006E000302801D100227F1E002A099784D01DE006
:1006F000112D07DA00F096F9303262556D1C50EA80
:100700000102F5D1084302D00098C8B10EE00021E3
:10071000681E05E0235C625C63542254401E491C41
:100720008142F7DBAB46A81B401E0990002004F86D
:100730000B000B98099AC0F80880C0E9002B7AE7F3
:1007400011264FF0000857E72DE9F04F8846044680
:10075000D21D22F0070191B0D1E90001CDE90A01D3
:1007600006F0E6FC02460B98C00F01D02D2007E0F2
:100770002068810701D52B2002E0202101EAC0007A
:10078000032A099001D0072A05DB0346414620468B
:1007900000F08EF90BE12078800601D5E06900E0D9
:1007A0000620B8F1650F814606D0B8F1660F18D063
:1007B000B8F1670F70D131E00020B9F1110F00904E
:1007C00001DB112301E009F101030AAA01A90CA828
:1007D000FFF7E2FEDDE90C70002609F10105834612
:1007E00047E001204B4600904FF000470AAA01A9BC
:1007F0000CA8FFF7D1FEDDE90DB00C995D4600268F
:1008000010B909F101000D18B9EB050003D4C0F1CE
:10081000FF3609F10105A5EB09002BE0B9F1010F45
:1008200001DA4FF001090020B9F1110F009048469C
:1008300001DD112300E003460AAA01A90CA8FFF775
:10084000ABFEDDE90C704D4600268346207800079C
:100850000AD4AB4500DA5D4601A8012D04DD41193B
:1008600011F8011C302907D04F4502DA17F1040FA7
:1008700004DA012082460FE06D1EEEE7002F02DC55
:10088000ED1B3E4403E0781CA84200DD7D1CB81B34
:1008900000F1010A4FF000472078000703D4AA4571
:1008A00001DB4FF0FF3A0021B7F1004F0DF1430893
:1008B0008DF8431024D002202B23002F01DA7F4231
:1008C0002D230A21021EA0F1010000DC5FB197FB7D
:1008D000F1FC97FBF1F201FB1C7C17460CF1300C8C
:1008E00008F801CDEEE7A8F10100037021880905A1
:1008F00001D5452100E06521A0F1010800F8011CA7
:1009000009980FA9A1EB0807FF1D00B101204119AB
:1009100001EBEA70A1693844081A401EA0612078F2
:10092000C00602D42046AFF30080099828B1D4E96C
:1009300001219047206A401C20622078C00622D501
:100940002046AFF300801EE0002E04DBB34502DD3D
:1009500001A8805D00E03020D4E901219047206AA1
:10096000401C2062761CAAF101005FEA000A0AD14D
:1009700000F054F8C0680168405CD4E90121904758
:10098000206A401C2062281EA5F10105DCDC07E07E
:10099000D4E9012118F8010B9047206A401C20621D
:1009A000381EA7F10107F3DC2046AFF300800320D7
:1009B00011B041E601694A1C02610878704700B530
:1009C0008FB0CDE901310021059105497944CDE988
:1009D000031011466846FFF7B9FC0FB000BD0000D8
:1009E000E5FFFFFF0A6802F8010B0A60704710B5C7
:1009F000436913B1AFF3008001E0FFF741FC012030
:100A000010BD127800F124010A7000224A70012200
:100A1000EDE711684FF0FF32E9E70000004870474A
:100A2000A001002030B5B0F10A0271F100034FEAD5
:100A3000900E4EEA817EB0EB0E0061EB91014FEA21
:100A4000101E4EEA017E10EB0E0041EB11114FEA31
:100A5000102E4EEA016E10EB0E0041EB11214FEA11
:100A6000104E4EEA014E10EB0E0041EB11414018C2
:100A700041F100014FEAD00040EA41704FEAD10154
:100A80004FEA810444EA907410EB800544EB0104C2
:100A90006D1944EB0404521BA3414FF0000348BFFF
:100AA0000A3200D530BD401C41F1000130BD0000CC
:100AB0002DE9F0411F46044603260168072A01F488
:100AC000006004DB08B116A505E016A503E008B137
:100AD00015A500E015A521F010002060A069C01E3A
:100AE000A0610FB1401EA0612046AFF300804FB15E
:100AF000D4E9012138469047206A401C2062C01C7E
:100B0000206206E0206AFAE7D4E9012115F8010B1A
:100B10009047761EF8D22046AFF30080BDE8F08102
:100B20004E414E006E616E00494E4600696E660091
:100B30002DE9F047814616468AB0354878440DC8FD
:100B40008DE80D0032487844801C03AC0DC884E861
:100B50000D0041F69B300844372190FBF1F290FBE9
:100B6000F1F5A5F1800501FB12041B3C02D564429E
:100B7000012000E00020DFF898A080460027FA441A
:100B8000AAF1BE0A0EE0E0070AD03246684607EB3B
:100B9000470101230AEB810106F093F98DE8070074
:100BA00064107F1C002CEED1194F7F44AE3F19E03A
:100BB000E80715D007EB04100DF1180A90E80E00B5
:100BC0008AE80E00C068F04201D1981908903246B8
:100BD000012306A903A806F074F903AB83E8070014
:100BE0006D10641C002DE3D14FF0010332466946BD
:100BF000B8F1000F03A802D006F04EF901E006F0AC
:100C000060F9C9E90001C9F808200AB0BDE8F08719
:100C1000386E000000487047800100207546FFF7DD
:100C2000F9FFAE4605006946534620F007008546A9
:100C300018B020B5FFF7FEFABDE820404FF00006DF
:100C40004FF000074FF000084FF0000BAC46ACE847
:100C5000C009ACE8C009ACE8C009ACE8C00921F0A3
:100C600007018D46704710B50446AFF3008020465B
:100C7000BDE81040FFF7CABA4FF0013C50F8042B12
:100C800051F8043B9A4221D1A2EB0C03934313EA9F
:100C9000CC1317D150F8042B51F8043B9A4215D1CC
:100CA000A2EB0C03934313EACC130BD150F8042BA3
:100CB00051F8043B9A4209D1A2EB0C03934313EA87
:100CC000CC13DBD04FF00000704700BFD01A01BA40
:100CD000B1FA81F101F0180122FA01F0CB40DBB248
:100CE000C0B2C01AC1F120012CFA01F3D11A91430C
:100CF00011EAC311E6D1704701491820ABBEFEE7E7
:100D00002600020070470000B0B504460068816804
:100D1000C90709D0816821F00101816001F056FE08
:100D200021688968C90701D10020B0BD054602E0ED
:100D30008068C007F8D001F049FE411B20680329F4
:100D4000F6D38168C907F3D0A06A40F01000A06212
:100D5000E06A40F00100E0620120B0BD0146406A57
:100D6000826A12F0500F03D0006A026B08461047E7
:100D70000168826A42F400728262896801F460212B
:100D8000B1F5602F01D1017B11B101F0B1B800BF05
:100D9000816A21F480718162816AC90448BF01F0CF
:100DA000A7B8816A41F00101816201F0A1B8000099
:100DB000406A816A41F040018162C16A41F00401E8
:100DC000C16201F099B80000406A01F093B80000D8
:100DD000B0B582B004460020019021688A68D2072D
:100DE0004BD1886840F00100886040F21000C2F2E8
:100DF000000000684DF68361C4F21B31A0FB0101C5
:100E0000880C01900198A0B10198013801900198D7
:100E100078B1019801380190019850B101980138DA
:100E20000190019828B1019801380190019800289B
:100E3000EAD101F0CBFD21688968C9071CD10546BC
:100E400003E000BF8068C00716D101F0BFFD411B61
:100E500020680329F6D38168C907F3D1A06A40F05E
:100E60001000A062E06A40F00100E062002084F817
:100E70002400012002B0B0BD002002B0B0BD0000CF
:100E800080B540F2346040F24A21C2F20000C2F262
:100E900000014FF4FA7201F047F9002808BF80BD45
:100EA000BDE8804000F08EB9B0B5032000F02CFA08
:100EB00040F20025C2F200052860022000F024FA6A
:100EC0000446032000F020FA0146204606F09EFC6E
:100ED0006860012000F018FA0446022000F014FABD
:100EE0000146204606F092FCA860002000F00CFAB3
:100EF0000446012000F008FA0146204606F086FC70
:100F0000E860002000F000FA2861042000F0FCF9FD
:100F10006861B0BDFEE7000040F26460C2F200000C
:100F200001F096B92DE9F0414FF20044C0F60004FB
:100F3000204600F083F906F021FB40F21808C2F2C7
:100F40000008C8F81000204600F078F940F2202789
:100F5000C2F20007A51CB880284600F06FF906F021
:100F60000DFBC8F83800284600F068F9251DF88008
:100F7000284600F063F906F001FBC8F86000284637
:100F800000F05CF9A51D3881284600F057F906F0FD
:100F9000F5FAC8F88800284600F050F904F1080670
:100FA0007881304600F04AF906F0E8FA0025C4F2EC
:100FB000C825294606F0B8F9C8F8B000304600F058
:100FC0003DF906F0DBFA294606F0AEF904F10A060F
:100FD0003861304600F032F906F0D0FA294606F0C2
:100FE000A3F9C8F8D800304600F028F906F0C6FA90
:100FF000294606F099F904F10C067861304600F0B4
:101000001DF906F0BBFA294606F08EF9C8F8000172
:10101000304600F013F906F0B1FA294606F084F9DB
:10102000B86104F5006000F009F9B881BDE8F0810D
:1010300070470000202001F0A9BB0000F0B581B08E
:1010400040F2A860C2F20000006848F20002416A63
:10105000CFF6FF7251408AB201EBD23240F23C210E
:10106000C2F200010B8812B203EB620215B20A80D1
:1010700082EAE532A2EBE53296B2022E4FF000078B
:101080001BD340F600044FF40042C4F20104426254
:101090000F80204601210122012701F091FC14203C
:1010A00001F038FA20460121002201F089FC0A2EC5
:1010B00088BF0A27002DC8BF7F4278B201B0F0BDBB
:1010C00070B540F21826C2F20006347884B140F6BA
:1010D0000005C4F2010528460121012201F070FC3F
:1010E000322001F017FA28460121002201F068FCA5
:1010F00000212046317070BD10B540F2A864C2F2E4
:10110000000420463C2102F063FA20684FF40041BD
:10111000416210BD70B540F60005C4F2010505F549
:101120008060202101F046FC40F20C06C2F200066D
:1011300031780446012908BF002C19D0002908BFC6
:10114000012C23D128460121002201F039FC40F274
:101150001825C2F200056878012831D101F036FC6B
:101160006968401AB0F57A7F24D201201DE000BFE3
:1011700001F02CFC40F21821C2F20001486001206D
:10118000487028460121012201F01AFC40F218257E
:10119000C2F200056878012812D101F017FC6968D5
:1011A000401AB0F57A7F0BD3022040F21821C2F228
:1011B0000001087040F21820C2F2000000214170C6
:1011C000347070BDEFF3108072B600BFFEE7000010
:1011D00010B586B00024059401F0BEFA4CF25030F0
:1011E00000F02EF84FF20040C0F6000003900120FE
:1011F000049001A805A9019401F0A0F94CF2503027
:1012000000F01EF801F012FA06B010BDB0B50C46A1
:10121000054601F0A1FA4CF2503000F011F801201F
:1012200029462246002301F00BFA4CF2503000F020
:1012300007F8BDE8B04001F0F9B900000088704738
:1012400070B542F20C060446C4F2020601F0BEFB81
:101250003168C9071CD13068800644BF2020306047
:101260003068C00607D43069C00704D13068400731
:101270005CBF002070BD3068C00640F23870C2F21A
:10128000000021D400213268520725D42AE000BF93
:10129000C4B10546601C10D13068C007DBD030688F
:1012A000C0071CBF30685FEAC070D4D03068C00788
:1012B000F2D1D0E73068C007CDD001F087FB401BEA
:1012C000A042F7D9032070BDC16941F00201C1619C
:1012D00010213268520705D5C26941F0040142F07D
:1012E0000102C2613269D20702D10120316070BDB2
:1012F000C26942F00402C261306920F0010030612D
:101300000120316070BD00002DE9F0474FF618480C
:10131000CFF6FF7840F24A2E4FF0FF330026C2F29C
:10132000000E41460EEB0105B5F8E823934228BFB5
:101330001346B5F8F243964288BF3246A34228BF0F
:101340002346B5F8FC63A24298BF2246B34228BFA9
:101350003346B5F80644B24298BF3246A34228BF8E
:101360002346B5F81064A24298BF2246B34228BF74
:101370003346B5F81A44B24298BF3246A34228BF5A
:101380002346B5F82464A24298BF2246B34228BF40
:101390003346B5F82E44B24298BF3246A34228BF26
:1013A0002346B5F83864A24298BF2246B34228BF0C
:1013B0003346B5F84254B24298BF3246AB4228BFDA
:1013C0002B46AA4298BF2A4664311646AAD14FF04E
:1013D0000009C446002100BF0EEB0C05B5F8E87308
:1013E000DC1B18BF0124D61B18BF0126344018BFD0
:1013F0003944B5F8F263A1449F1B18BF0127941B21
:1014000018BF01243C4018BF3144B5F8FC63A14427
:101410009F1B18BF0127941B18BF01243C4018BF15
:101420003144B5F80664A1449F1B18BF0127941BE3
:1014300018BF01243C4018BF3144B5F81064A144E2
:101440009F1B18BF0127941B18BF01243C4018BFE5
:101450003144B5F81A64A1449F1B18BF0127941B9F
:1014600018BF01243C4018BF3144B5F82464A1449E
:101470009F1B18BF0127941B18BF01243C4018BFB5
:101480003144B5F82E64A1449F1B18BF0127941B5B
:1014900018BF01243C4018BF3144B5F83864A1445A
:1014A0009F1B18BF0127941B18BF01243C4018BF85
:1014B0003144B5F842544C445E1B18BF0126571BFB
:1014C00018BF01273E4018BF29441CF1640C04EBEF
:1014D000060981D15FEA096504D05FFA89F2B1FBA0
:1014E000F2F101E0D118490840F2402CC2F2000CA0
:1014F000ACF800104FF0FF33002541460EEB01041D
:10150000B4F8EA23934228BF1346B4F8F463954233
:1015100088BF2A46B34228BF3346B4F8FE53B242CE
:1015200098BF3246AB4228BF2B46B4F80864AA42A3
:1015300098BF2A46B34228BF3346B4F81254B24289
:1015400098BF3246AB4228BF2B46B4F81C64AA426F
:1015500098BF2A46B34228BF3346B4F82654B24255
:1015600098BF3246AB4228BF2B46B4F83064AA423B
:1015700098BF2A46B34228BF3346B4F83A54B24221
:1015800098BF3246AB4228BF2B46B4F84444AA4227
:1015900098BF2A46A34228BF2346A24298BF2246AC
:1015A00064311546AAD14FF0000AC146002100BFA0
:1015B0000EEB0905B5F8EA73DC1B18BF0124D61B36
:1015C00018BF0126344018BF3944B5F8F463A2446B
:1015D0009F1B18BF0127941B18BF01243C4018BF54
:1015E0003144B5F8FE63A2449F1B18BF0127941B2A
:1015F00018BF01243C4018BF3144B5F80864A24428
:101600009F1B18BF0127941B18BF01243C4018BF23
:101610003144B5F81264A2449F1B18BF0127941BE4
:1016200018BF01243C4018BF3144B5F81C64A244E3
:101630009F1B18BF0127941B18BF01243C4018BFF3
:101640003144B5F82664A2449F1B18BF0127941BA0
:1016500018BF01243C4018BF3144B5F83064A2449F
:101660009F1B18BF0127941B18BF01243C4018BFC3
:101670003144B5F83A64A2449F1B18BF0127941B5C
:1016800018BF01243C4018BF3144B5F844545444B9
:101690005E1B18BF0126571B18BF01273E4018BF0D
:1016A000294419F1640904EB060A81D15FEA0A644E
:1016B00004D05FFA8AF2B1FBF2F101E0D1184908D7
:1016C000ACF802104FF0FF33002541460EEB010449
:1016D000B4F8EC23934228BF1346B4F8F66395425E
:1016E00088BF2A46B34228BF3346B4F80054B242FA
:1016F00098BF3246AB4228BF2B46B4F80A64AA42D0
:1017000098BF2A46B34228BF3346B4F81454B242B5
:1017100098BF3246AB4228BF2B46B4F81E64AA429B
:1017200098BF2A46B34228BF3346B4F82854B24281
:1017300098BF3246AB4228BF2B46B4F83264AA4267
:1017400098BF2A46B34228BF3346B4F83C54B2424D
:1017500098BF3246AB4228BF2B46B4F84644AA4253
:1017600098BF2A46A34228BF2346A24298BF2246DA
:1017700064311546AAD14FF0000AC146002100BFCE
:101780000EEB0905B5F8EC73DC1B18BF0124D61B62
:1017900018BF0126344018BF3944B5F8F663A24497
:1017A0009F1B18BF0127941B18BF01243C4018BF82
:1017B0003144B5F80064A2449F1B18BF0127941B55
:1017C00018BF01243C4018BF3144B5F80A64A24454
:1017D0009F1B18BF0127941B18BF01243C4018BF52
:1017E0003144B5F81464A2449F1B18BF0127941B11
:1017F00018BF01243C4018BF3144B5F81E64A24410
:101800009F1B18BF0127941B18BF01243C4018BF21
:101810003144B5F82864A2449F1B18BF0127941BCC
:1018200018BF01243C4018BF3144B5F83264A244CB
:101830009F1B18BF0127941B18BF01243C4018BFF1
:101840003144B5F83C64A2449F1B18BF0127941B88
:1018500018BF01243C4018BF3144B5F846545444E5
:101860005E1B18BF0126571B18BF01273E4018BF3B
:10187000294419F1640904EB060A81D15FEA0A647C
:1018800004D05FFA8AF2B1FBF2F101E0D118490805
:10189000ACF804104FF0FF33002541460EEB010475
:1018A000B4F8EE23934228BF1346B4F8F863954288
:1018B00088BF2A46B34228BF3346B4F80254B24226
:1018C00098BF3246AB4228BF2B46B4F80C64AA42FC
:1018D00098BF2A46B34228BF3346B4F81654B242E2
:1018E00098BF3246AB4228BF2B46B4F82064AA42C8
:1018F00098BF2A46B34228BF3346B4F82A54B242AE
:1019000098BF3246AB4228BF2B46B4F83464AA4293
:1019100098BF2A46B34228BF3346B4F83E54B24279
:1019200098BF3246AB4228BF2B46B4F84844AA427F
:1019300098BF2A46A34228BF2346A24298BF224608
:1019400064311546AAD14FF0000AC146002100BFFC
:101950000EEB0905B5F8EE73DC1B18BF0124D61B8E
:1019600018BF0126344018BF3944B5F8F863A244C3
:101970009F1B18BF0127941B18BF01243C4018BFB0
:101980003144B5F80264A2449F1B18BF0127941B81
:1019900018BF01243C4018BF3144B5F80C64A24480
:1019A0009F1B18BF0127941B18BF01243C4018BF80
:1019B0003144B5F81664A2449F1B18BF0127941B3D
:1019C00018BF01243C4018BF3144B5F82064A2443C
:1019D0009F1B18BF0127941B18BF01243C4018BF50
:1019E0003144B5F82A64A2449F1B18BF0127941BF9
:1019F00018BF01243C4018BF3144B5F83464A244F8
:101A00009F1B18BF0127941B18BF01243C4018BF1F
:101A10003144B5F83E64A2449F1B18BF0127941BB4
:101A200018BF01243C4018BF3144B5F84854544411
:101A30005E1B18BF0126571B18BF01273E4018BF69
:101A4000294419F1640904EB060A81D15FEA0A64AA
:101A500004D05FFA8AF2B1FBF2F101E0D118490833
:101A6000ACF806104FF0FF33002541460EEB0104A1
:101A7000B4F8F023934228BF1346B4F8FA639542B2
:101A800088BF2A46B34228BF3346B4F80454B24252
:101A900098BF3246AB4228BF2B46B4F80E64AA4228
:101AA00098BF2A46B34228BF3346B4F81854B2420E
:101AB00098BF3246AB4228BF2B46B4F82264AA42F4
:101AC00098BF2A46B34228BF3346B4F82C54B242DA
:101AD00098BF3246AB4228BF2B46B4F83664AA42C0
:101AE00098BF2A46B34228BF3346B4F84054B242A6
:101AF00098BF3246AB4228BF2B46B4F84A44AA42AC
:101B000098BF2A46A34228BF2346A24298BF224636
:101B100064311546AAD14FF0000900210EEB0804EC
:101B2000B4F8F0639F1B18BF0127951B18BF012550
:101B30003D4018BF3144B4F8FA63A9449F1B18BF55
:101B40000127951B18BF01253D4018BF3144B4F84B
:101B50000464A9449F1B18BF0127951B18BF0125CA
:101B60003D4018BF3144B4F80E64A9449F1B18BF10
:101B70000127951B18BF01253D4018BF3144B4F81B
:101B80001864A9449F1B18BF0127951B18BF012586
:101B90003D4018BF3144B4F82264A9449F1B18BFCC
:101BA0000127951B18BF01253D4018BF3144B4F8EB
:101BB0002C64A9449F1B18BF0127951B18BF012542
:101BC0003D4018BF3144B4F83664A9449F1B18BF88
:101BD0000127951B18BF01253D4018BF3144B4F8BB
:101BE0004064A9449F1B18BF0127951B18BF0125FE
:101BF0003D4018BF3144B4F84A444D441E1B18BF41
:101C00000126171B18BF01273E4018BF214418F1B9
:101C1000640805EB060981D15FEA096704D05FFA21
:101C200089F2B1FBF2F101E0D1184908ACF80810D3
:101C30003CF8100005F0A2FC4FF20001C4F27F5105
:101C400005F072FB43F23331C4F2530105F012FD8B
:101C50004FF0814105F00EFDBDE8F08770B582B010
:101C600004460020019094F82400012802D10220AB
:101C700002B070BD012084F824002046FFF744F82C
:101C80002046FFF7A5F828B1002184F8241002B0FF
:101C900070BD00BF0646A06A41F2021188430230BF
:101CA000A06240F21000C2F200000568022000F0BD
:101CB00049FFB5FBF0F0400001900198A8B100BFCA
:101CC000019801380190019878B10198013801908C
:101CD000019850B1019801380190019828B10198FC
:101CE0000138019001980028EAD12068816841F00C
:101CF0000801816000F06AFE21688A6812070FD42B
:101D0000886840F00400886000F060FE21688968FF
:101D1000490715D401216FF00302304622E000BFCD
:101D2000054602E088680007EAD500F04FFE401B38
:101D300021680B28F6D388680007F3D50EE000BFB2
:101D4000054602E080684007E4D500F03FFE411BF5
:101D500020680B29F6D381684907F3D501201021AB
:101D60006FF01202A36A1A401143A162002184F8A5
:101D7000241002B070BD000010B581B000220092A6
:101D800090F82420012A03D10221084601B010BD99
:101D90004B680122062B80F8242033D8D0F800C0ED
:101DA00003EB83035A1F1F23DCF834E003FA02F429
:101DB0000B682EEA040403FA02F22243CCF8342022
:101DC000092B03EB430249D9DCF80CE01E3A072447
:101DD000896894402EEA0404914023F001022143D3
:101DE000102ACCF80C1043D142F20841C4F2010190
:101DF000A1F10802944543D0816A41F0200181623B
:101E0000012136E0D0F800C00C2B03EB830213D87D
:101E1000233A1F23DCF830E003FA02F40B682EEAC1
:101E2000040403FA02F22243CCF83020092B03EB1E
:101E30004302C9D812E000BF413A1F23DCF82CE06E
:101E400003FA02F40B682EEA040403FA02F22243B6
:101E5000CCF82C20092B03EB4302B5D8DCF810306A
:101E6000072489689440A34391401943CCF810108B
:101E70000021002280F82420084601B010BD00BFD8
:101E80000A681202F4D40A68102B42F400020A60B5
:101E9000EED140F21001C2F2000109684DF68362F2
:101EA000C4F21B32A1FB0212910C01EB810149002B
:101EB000009100990029DBD0009901390091009927
:101EC0000029D5D000990139009100990029CFD07F
:101ED00000990139009100990029C9D00099013970
:101EE0000091009900294FF00001E5D1C1E7000001
:101EF000704700007047000070470000002804BFD2
:101F000001207047B0B50446806A28B1216888680E
:101F1000C0070CD115E000BF0020E06284F8240067
:101F2000204600F097F821688868C00709D08868C3
:101F300020F00100886000F049FD21688A68D2071E
:101F400026D1A06AC0063AD4A06A41F20212904398
:101F50000230A062E069D4E9013240EA030C531E6A
:101F6000B3FA83F35D091346B2F5807F18BF2B02E5
:101F7000207D257B01284CEA45002CD135B3A56A8C
:101F800045F02005A562E56A45F00105E56222E01D
:101F9000054602E08868C007D3D000F017FD401B5B
:101FA00021680328F6D38868C007F3D0A06A40F000
:101FB0001000A062E06A40F00100E062A06AA06A3E
:101FC00040F01000A0620120B0BD00BFA56903EB86
:101FD0004533A3F5C0534D68B2F5807F25F46945BC
:101FE00043EA05034B608B684FF2FD75CFF6E17550
:101FF00003EA050343EA00038B6001D0012A07D1FD
:1020000022690023CFF6F07303EB025201E000BF18
:102010000022CB6A23F470031A43CA62896840F62F
:10202000FE62CFF61F721140814207D10020E062AC
:10203000A16A012262F30101A162B0BDA06A40F071
:10204000100020F00200A062E06A40F00100E062AF
:102050000120B0BD2DE9F04186B040F600050446F0
:10206000C4F20105006805F5E05100278842059794
:10207000CDE90377029703D006B0BDE8F08100BF39
:1020800041F21800C4F2020001680DF1080841F4A1
:10209000007101600168032601F40071019101994A
:1020A000016841F004010160016801F0040101913F
:1020B0000199016841F0080101600068414600F0A3
:1020C000080001900198542002902846039600F0E1
:1020D00069FB05F580604146CDE9026600F062FBD0
:1020E00040F264650820C2F20005C4F202004FF419
:1020F0008072C5E9000705F1100080214FF480636C
:1021000020264FF4005C80E84C102846C5E9027197
:1021100000F06EF9002818BFFFF754F825626C62D2
:1021200006B0BDE8F0810000F0B581B0036842F66A
:102130000006C4F20106B34205D042F20046C4F2E2
:102140000106B3420AD142F20443C4F201031B6800
:1021500013F4702F02D0012001B0F0BD90F82430AC
:10216000012B03D1022001B0F0BD00BF0D460121BB
:10217000174680F824100646FEF72AFE30B10020EC
:1021800086F82400012001B0F0BD00BF42F20440F7
:102190003168B36AC4F20100324640F60176B343B7
:1021A00000F57F7603F58073B142936244D0906A64
:1021B00020F4801090624868400504D5906A01239D
:1021C00063F30D309062936A0020DB044FF000034C
:1021D00044BFD36A23F00603D36282F82400106A56
:1021E00040F65D5340F6C956C0F60003C0F600063F
:1021F00040F6B154C0F60004C0E90A366FF002039D
:1022000004630B608B68144643F480738B604C311D
:102210002A463B4600F02EF92068816801F46022CE
:102220008168B2F5602F0CBF41F4A00141F4801128
:102230008160002001B0F0BD036813F4702FB6D0A8
:10224000936A43F48013936200684005B6D4BAE7FA
:1022500010B5D0E90FCE0168DCF800300A6823FA27
:102260000EF35C072AD512F0040427D00A68920600
:1022700003D40A6822F004020A602F22C4F2020288
:10228000914240F20402C4F202025BDD3023C4F248
:102290000203994272D04423C4F20203994273D0DC
:1022A0005823C4F20203994240F07A804FF480230D
:1022B0001360C16A002940F098806FE09C0727D521
:1022C00012F0020424D00A68920606D40A6822F0AA
:1022D0000A020A60012280F821202F22C4F20202A1
:1022E000914240F20402C4F202023BDD3023C4F208
:1022F0000203994260D04423C4F2020399425FD0A2
:102300005823C4F20203994260D14FF4003365E0D0
:102310001B0743D512F0080208BF10BD0A6822F05F
:102320000E020A60012101FA0EF2CCF8042081634A
:1023300080F82110016B0022002980F8202054D160
:102340002CE000BF0823C4F20203994222D01C23D0
:10235000C4F20203994223D140231360C16A0029C9
:1023600043D11BE00823C4F2020399422CD01C2362
:10237000C4F20203994229D120232FE04FF4806355
:102380001360C16A89BB09E04FF480431360C16ADE
:1023900059BB03E004231360C16A31BB10BD00BF09
:1023A00002F168044FF08063A14208BF4FF480033C
:1023B0001360C16AC9B9F1E74FF400730EE000BFC2
:1023C0004FF400530AE000BF022307E002F1680463
:1023D0004FF00073A14208BF4FF400131360816AED
:1023E0000022002980F82020D8D0BDE810400847FE
:1023F000014600284FF0010008BF70472DE9F04367
:10240000D1F800C04FF6F873CBF6FD734CF6CD4211
:102410006344CCF6CC42A3FB02236FF0030202EA32
:1024200093020023C4F2020301F10C08C1E90F3248
:102430000222D1E9019E98E8F00181F82120DCF820
:10244000002043F6F0739A4342EA090242EA0E0280
:1024500022432A4332433A4342EA0802CCF800209E
:1024600000228A6381F8210081F820200020BDE845
:10247000F043704790F820C0BCF1010F04BF022068
:102480007047F0B54FF0010E80F820E090F821C0C1
:10249000BCF1010F26D14FF0020C80F821C04FF0A3
:1024A000000CC0F838C0D0E900C4C56AC66BDCF8BF
:1024B0000070102C27F00107CCF80070006C0EFAA9
:1024C00000F070600846CCF8043004BF10460A469D
:1024D000CCF80800CCF80C20DCF8000045B140F046
:1024E0000E000DE0002180F820100220F0BD00BF9A
:1024F00020F00400CCF80000DCF8000040F00A00F6
:10250000CCF80000DCF8000040F00100CCF800003E
:102510000020F0BDB0B5044600F058FA054640F280
:102520000400C2F200000078611C18BF044400BF20
:1025300000F04CFA401BA042FAD3B0BD2DE9F043A5
:1025400081B040F23875C2F200052A7E012A03D11B
:10255000022001B0BDE8F0830446012026682876F9
:102560004CF250308846FEF76BFE022E1CD100283C
:102570004ED1002042F21004E861C4F20204206847
:1025800040F004002060206840F0400020604CF2E1
:102590005030FEF755FE216821F004012160002132
:1025A000297601B0BDE8F08390BB4FF0FF30C8F84A
:1025B0000000D4E90270414607EB8020874227D211
:1025C00042F21006C4F202064FF00009C5F81C9052
:1025D000306840F0020030607760306840F04000C2
:1025E00030604CF25030FEF72BFE316821F00201D2
:1025F000316098B9D4E9020107F5806700EB8120CA
:102600008742E3D300200021297601B0BDE8F083A2
:1026100001200021297601B0BDE8F083C8F80070E0
:102620000021297601B0BDE8F083000042F21001DC
:10263000C4F20201086840F0800200200A6070477E
:102640002DE9F04381B040F23877C2F20007164618
:102650003A7E012A04D1022001B0BDE8F08300BF18
:102660000546012038764CF250300C469846FEF76D
:10267000E7FD28B10021397601B0BDE8F08300BF45
:1026800042F210090020C4F20209F861D9F80000F2
:1026900040F00100C9F800004CF250302680FEF7EF
:1026A000CFFDD9F80010002821F00101C9F8001071
:1026B00018BF0046DED1012DDCD00020F861D9F82A
:1026C0000000310C40F00100C9F800004CF250301D
:1026D0006180FEF7B5FDD9F80010002821F0010156
:1026E000C9F80010C6D1E81E10F1030F4FF000002A
:1026F000C0D8F861D9F8000040F00100C9F8000026
:102700004CF25030A4F80480FEF79AFDD9F800107E
:10271000002821F00101C9F80010ABD10020F861B8
:10272000D9F800004FEA184140F00100C9F8000054
:102730004CF25030E180FEF783FDD9F800100028FC
:1027400021F00101C9F8001018BF004600213976B8
:1027500001B0BDE8F083000042F20400C4F20200C0
:10276000C16809065CBF0020704740F22311C4F223
:102770006751016048F6AB11CCF6EF510160C068BB
:10278000C0B2C009704700007047000040F2144119
:10279000C4F201010A68024214BF08607047FFF7E3
:1027A000F3BF00002DE9F04F82B00E68002E00F05C
:1027B000FD8041F20042C4F20102042340F2004EC7
:1027C000904208BF03234FF6FF7CC4F2010E009332
:1027D00000240123C1F2100C4FF0000A4FF0000951
:1027E0004BE000BF41F20002C4F20102009F9042A0
:1027F00008BF022704F00C030F229A402BEA0202C2
:1028000007FA03F34FEA9A051A4346F825204E6863
:1028100040F20C45F202DEF8082054BF22EA08021A
:1028200042EA0802C4F20105CEF808202A68B30281
:1028300054BF22EA080242EA08022A60B303DEF823
:10284000042054BF22EA080242EA0802F303CEF849
:102850000420DEF800204FF0010354BF22EA0802F2
:1028600042EA0802CEF800200E680AF1010A36FAA0
:102870000AF204F1040400F0998003FA0AFB16EA54
:102880000B08F1D04E68664512DC122E56D8DFE8F0
:1028900006F0350B4D49555555555555555555551A
:1028A00055555545510000BFD1F80C9046E000BF8A
:1028B0004FF6FF72C1F2210296420FDC0022C1F2F4
:1028C000110296421AD00022C1F21202964215D08D
:1028D0000022C1F22102964210D02FE00022C1F264
:1028E000220296420AD00022C1F23102964205D05D
:1028F0000022C1F23202964220D100BF8A684AB15A
:10290000012A14BFC0F814B0C0F810B04FF0080985
:1029100014E000BF4FF0040910E000BFCA6802F1E4
:1029200004090BE04FF0000908E000BFCA6802F19B
:10293000080903E0CA6802F10C0900BF02462646F6
:10294000B8F5807F24BF0432203E17680F25B540BC
:1029500027EA050509FA06F635431560CA79D20655
:102960007FF582AF41F21803C4F202031A68AEF594
:102970007E7642F001021A601A6802F001020192AA
:10298000019A2AF0030256F802B040F60002C4F29F
:102990000102904208D040F60042C4F20102904287
:1029A0007FF420AF012725E7002723E702B0BDE829
:1029B000F08F00008068084018BF012070470000B9
:1029C000002A08BF090401617047000040F25870F6
:1029D000C2F200000068704740F2040040F25871F3
:1029E000C2F20000C2F2000100780A6810440860D8
:1029F0007047000080B542F20000C4F20200016896
:102A000041F010010160032000F08CF80F2000F06D
:102A100005F800F027F8002080BD000070B540F2F6
:102A20000406C2F2000640F210013278C2F2000140
:102A30004FF47A730968B3FBF2F20446B1FBF2F18A
:102A4000084600F083FC0F2C4FF0010508D838B978
:102A50004FF0FF3021460022002500F037F8746067
:102A6000284670BD82B041F21800C4F2020001682D
:102A7000022241F001010160016801F001010191B0
:102A80000199416841F080514160406800F08050F8
:102A9000009000980420C4F20100016862F31A61FA
:102AA000016002B070470000002848BF704700F086
:102AB0001F01012202FA01F11C2202EAD0004EF2AB
:102AC0000012CEF2000281507047000010B54EF6A1
:102AD0000C5CCEF2000CDCF80030C3F3022E8EF05A
:102AE0000704042C28BF0424BEF103034FF0FF3E6B
:102AF0000EFA04F438BF0023A14399400EFA03F301
:102B00009A43114300F00F0200F160430901043AB7
:102B100003F564436244002848BF02F10C031970B6
:102B200010BD00004EF60C51CEF200010A684FF6BF
:102B3000FF031A4060F30A2242F0806040F0FD700B
:102B400008607047012821D002280DD0102808D134
:102B500041F20401C4F202010A6851F8040CC001F8
:102B600034D40020704700BF80B500F0DBF941F29B
:102B70000401C4F2020109680222C1F3813102EBAF
:102B80004101B0FBF1F0BDE88040704741F2040024
:102B9000C4F20200C16940F202320A40B2F5817FFC
:102BA00004BF4FF40040704701F44071B1F5407F1D
:102BB00018D0B1F5007F1CBF00207047006A49F6AD
:102BC0004041800701EAE070704700BFC2F38340D4
:102BD00015A3185CD2030DD440F60012C0F23D02DA
:102BE000504313E050F8040C4FF22441800301EAF3
:102BF000E07070470A6810A3C2F340429A5C41F249
:102C00000023C0F27A03B3FBF2F250430968490291
:102C100048BF70474AF6AB214000CAF6AA21A0FB84
:102C200001014808704700BF0203040506070809B0
:102C30000A0B0C0D0E0F1010010200002DE9F041DF
:102C400082B00446007841F21C06C007C4F20206B6
:102C50004AD030685FEAC00808D4306840F080503D
:102C60003060306800F080500190019847F2000712
:102C7000C4F200073868C00512D4386840F4807088
:102C80003860FFF7A3FE05463868C00508D4FFF793
:102C90009DFE401B6428F7D9032002B0BDE8F081F7
:102CA000706810F4407012D0616801F4407188427D
:102CB0000DD0706840F24042C4F24222012320F459
:102CC000407113600023C0071360716026D17068E3
:102CD000616820F440700843B8F1000F706003D4BD
:102CE000306820F0805030602068810707D556F8A2
:102CF000181CA26821F44041114346F8181CC00674
:102D000007D556F8180CE16820F48000084346F80F
:102D1000180C002002B0BDE8F08100BFFFF756FE9E
:102D2000054641F2883700BF70688007CFD4FFF7AF
:102D30004DFE401BB8424FF00300F5D9EAE7000012
:102D4000002804BF012070472DE9F04381B042F212
:102D50000008C4F202080446D8F800000D4600F04E
:102D6000070088420CD2D8F8000020F00700284362
:102D7000C8F80000D8F8000000F00700A8426CD1A5
:102D8000206841F204098107C4F2020917D54107FE
:102D900005D5D9F8001041F4E061C9F80010010729
:102DA00005D5D9F8001041F46051C9F80010D9F8E0
:102DB0000010A26821F0F0011143C9F80010C0070B
:102DC00042D1D8F8000000F00700A8420CD9D8F88A
:102DD000000020F007002843C8F80000D8F80000E1
:102DE00000F00700A84238D12068410707D5D9F87C
:102DF0000010E26821F4E0611143C9F800100007F7
:102E000008D5D9F80000216920F4605040EAC100DB
:102E1000C9F80000D9F8002002F00C00082841F29F
:102E20000020C0F27A004DD14AF69E53C2F383418E
:102E3000C0F60003595CD20338D440F60010C0F24B
:102E40003D0048433EE000BF606859F8041C02287A
:102E500008D0012826D1890306D4012001B0BDE89D
:102E6000F08300BF8901F8D5D9F8001021F00301E3
:102E70000843C9F80000FFF7A9FD064641F288376C
:102E8000D9F80000616800F00C00B0EB810F98D019
:102E9000FFF79CFD801BB842F2D9032001B0BDE8CA
:102EA000F08300BF8907D8D5DEE700BFD9F800203E
:102EB00047F6A813C2F34042C0F600039A5C4843A9
:102EC000B0FBF2F0D9F8001047F69012C1F30311ED
:102ED000C0F60002515C40F2100220FA01F140F20B
:102EE0000800C2F200000068C2F200021160FFF7A1
:102EF00095FD002001B0BDE8F083000040F2100015
:102F000041F20401C2F20000C4F202010068096843
:102F100047F6A012C1F30221C0F60002515CC8407E
:102F20007047000040F2100041F20401C2F20000BC
:102F3000C4F202010068096847F6A012C1F3C22179
:102F4000C0F60002515CC84070470000002804BF72
:102F5000012070472DE9F04182B00446007841F22B
:102F60000006C007C4F202060CD0706800F00C0026
:102F7000042840F081803068800303D56068002811
:102F800000F04681207880071BD5706810F00C0F88
:102F900009D0706800F00C00082840F08780706845
:102FA000C00300F183803068800703D520690128C1
:102FB00040F02E813068616920F0F80040EAC100DD
:102FC00030602078000713D4207840072CD4E569BE
:102FD000002D00F01881706800F00C00082840F007
:102FE000A780012D40F00481012002B0BDE8F081EE
:102FF000A069002800F084800020C4F24220012152
:10300000C0F88014FFF7E2FC054600BF706A800735
:1030100000F1B280FFF7DAFC401B0228F6D903204A
:1030200002B0BDE8F08100BFF0695FEAC00808D4D3
:10303000F06940F08050F061F06900F0805000903D
:10304000009847F20007C4F200073868C00549D469
:10305000386840F480703860FFF7B8FC054600BF60
:103060003868C0053ED4FFF7B1FC401B6428F7D98F
:10307000032002B0BDE8F081706800F00C00082861
:1030800003D17068C0033FF576AF616830680029EE
:1030900000F00C81B1F5A02F00F00081B1F5803F68
:1030A00040F01A8140F480301CE100BF2069002804
:1030B00040F20000C4F2422000F08880012101604B
:1030C000FFF784FC054600BF306880073FF572AF0C
:1030D000FFF77CFC401B0228F6D9032002B0BDE8B4
:1030E000F08100BFE168306A002900F09D80052969
:1030F00000F09280012940F0AF8040F00100B1E083
:103100000020C4F242200021C0F88014FFF75EFCCA
:10311000054600BF706A80077FF556AFFFF756FC83
:10312000401B0228F6D9032002B0BDE8F08100BFA1
:103130000027C4F2422700203866FFF747FC022D23
:1031400005460DD13068800140F1DE80FFF73EFC7E
:10315000401B02284FF00300F4D902B0BDE8F08113
:10316000306880014FD5FFF731FC401B02284FF03B
:103170000300F5D9F1E700BF40F21000C2F20000F1
:10318000006844F6D351C1F26201A0FB0101480A74
:10319000019000BF00BF0198411E002801913FF43B
:1031A00013AF00BF0198411E002801913FF40CAFFE
:1031B00000BF0198411E002801913FF405AF00BFF8
:1031C0000198411E00280191E4D1FDE60021016033
:1031D000FFF7FCFB054600BF306880077FF5F1AEC6
:1031E000FFF7F4FB401B02284FF00300F4D9B4E7CB
:1031F0007068216A00F480328A4209D1616A00F461
:103200007010884204D1002002B0BDE8F08100BFF8
:10321000012002B0BDE8F08140F004003062306A65
:1032200040F001001EE000BF20F001003062306A73
:1032300020F004003062FFF7C9FB054641F28837F1
:10324000306A800720D5FFF7C1FB401BB8424FF022
:103250000300F5D981E700BF20F001003062306A39
:1032600020F004003062FFF7B1FB054641F28837D9
:10327000306A800708D4FFF7A9FB401BB842F7D992
:10328000032002B0BDE8F081B8F1000F3FF59FAE1A
:10329000F06920F08050F06199E600BF40F4802092
:1032A0003060306840F480301CE000BF20F4803093
:1032B0003060306820F480203060FFF787FB0546DF
:1032C000306880037FF55EAEFFF780FB401B64280B
:1032D0004FF00300F4D940E720F4803030603068CC
:1032E00020F480203060FFF771FB054630688003D2
:1032F0003FF548AEFFF76AFB401B6428F6D9032070
:1033000002B0BDE8F08100BF206AB0F5803F05D172
:103310007168A26821F40031114371607168626ABA
:1033200021F4741111430843706001203866FFF7DF
:103330004DFB0446306880013FF565AFFFF746FB63
:10334000001B02284FF00300F4D906E7411E0020BD
:10335000B0EB116F1CBF012070474EF21002CEF28D
:10336000000251604EF62351CEF20001F0230B70A3
:10337000072190601160704770470000704700009F
:1033800090F83C20012A4FF0020236D010B580F8A8
:103390003D200268D2F804E0D2F808C00C682EF094
:1033A0007003234340F2FF74C4F20004A24253604E
:1033B0000ADCB2F1804F13D040F20043C4F20003A4
:1033C0009A420DD011E000BF42F60043C4F201035F
:1033D0009A4205D040F60003C4F200039A4204D199
:1033E00049682CF08003194391600121002280F884
:1033F0003D1080F83C20BDE81040104670470000AA
:10340000002804BF012070472DE9F04F81B090F8EB
:103410003D2042B9002280F83C2004460D4600F0D1
:103420009DF829462046022280F83D20026844F299
:103430000705936842F6004CAB43936040F2FF737C
:103440001468C4F200039A42C4F2010C14DCB2F115
:10345000804F19D040F20045C4F20005AA4213D0B3
:103460009A4217DCB2F1804F1CD040F20043C4F204
:1034700000039A4216D01AE0624505D040F60005D6
:10348000C4F20005AA42EBD1856824F070042C43F5
:103490009A42E7DD624505D040F60003C4F200031E
:1034A0009A4204D1036924F4407543EA050424F0E8
:1034B00080038469D0F804E0C56823436245136043
:1034C000D562C2F828E002D14369CCF830304FF021
:1034D000010EC2F814E01569ED0703D0156925F057
:1034E0000105156195689469D2F820C0D1E90038CA
:1034F000D1E9027B43EA050A8D694FF6FF7924EA98
:10350000090447EA05254FF6FC47BD43D1E9077694
:1035100044EA0B040B692C4344EA07242CF02207ED
:10352000496944EA031347EA080743EA063347EACE
:103530000111C2F808A09361116280F846E080F89A
:103540003EE080F83FE080F842E080F843E080F819
:103550003DE0002001B0BDE8F08F000080B586B0EE
:1035600040F600010068C4F2000100228842CDE963
:1035700004220392029201D006B080BD41F21800ED
:10358000C4F20200436843F004034360436803F05D
:1035900004030193019B036843F008030360006880
:1035A00000F0080001900198C020CDE9020201F569
:1035B000823002A90492FFF7F5F81E2000210022B4
:1035C000FFF784FA1E20FFF76FFA06B080BD0000F7
:1035D00080B590F83E2090F83F3090F842E090F8A7
:1035E00043C004290AD0B9B9012A4FF0010208BF2B
:1035F000BEF1010F34D0104680BD00BF012B4FF04B
:10360000010208BFBCF1010FF5D1022180F83F1083
:1036100080F8431000681EE0012A4FF0010208BF45
:10362000012BE8D1BEF1010FE5D1BCF1010FE2D1D0
:10363000022280F83E2080F83F2080F8422080F867
:10364000432091B10068016A21F001010162016A21
:1036500041F00101016210216FF0100209E000BF8A
:10366000022180F83E1080F84210006801216FF0BE
:103670000102036A1A400262026A11430162016890
:10368000002241F001010160104680BD704700003A
:1036900070B504460068C5680669B10716D515F00F
:1036A000020113D06FF002010161012121778069CD
:1036B000800703D02046FFF7E9FF05E0204600F031
:1036C0008FF8204600F08EF800202077700719D57B
:1036D00015F0040016D020686FF00401016102218A
:1036E0002177806910F4407F04D02046FFF7CEFF99
:1036F00006E000BF204600F073F8204600F072F8A4
:1037000000202077300717D515F0080014D0206866
:103710006FF00801016104212177C069800703D09F
:103720002046FFF7B3FF05E0204600F059F8204699
:1037300000F058F800202077F00619D515F0100099
:1037400016D020686FF01001016108212177C0694F
:1037500010F4407F04D02046FFF798FF06E000BF3A
:10376000204600F03DF8204600F03CF8002020778D
:10377000F00718BF15F0010002D1300609D412E09D
:1037800020686FF001010161204600F02DF830063D
:1037900009D515F0800006D020686FF08001016126
:1037A0002046FFF7E9FD700609D515F0400006D068
:1037B00020686FF040010161204600F017F8B00664
:1037C00058BF70BD15F0200008D021686FF02002AE
:1037D00020460A61BDE87040FFF7D0BD70BD000013
:1037E00070470000704700007047000070470000FD
:1037F000002804BF0120704710B5044690F841002E
:1038000028B9002084F84000204600F063F8242006
:1038100084F841002068D4E90212C36823F40053FD
:10382000C360036923F440531A430261D4E90423BB
:103830001143C268194341F20C639A431143C160BA
:103840004169A26921F44071114343F60002C4F2B8
:1038500001029042416103D0FFF750FB02E000BF3C
:10386000FFF760FBD4E90023192148439900B0FB1E
:10387000F1F048F21F5CC5F2EB1CA0FB0C314FF6D7
:103880009C734909C0F6FF7301FB0300322303EB6D
:103890000010A0FB0C03F02000EA531000EB011015
:1038A000C3F34311084490601069202120F4904034
:1038B0001061506920F02A005061D06840F4005037
:1038C000D0600020606484F8411084F84210606386
:1038D00010BD000070B586B040F60004C4F20104CB
:1038E000006804F54051002688420596CDE903663C
:1038F000029601D006B070BD41F21800C4F2020079
:10390000016802AD41F480410160016801F4804129
:1039100001910199016841F00401016000682946A4
:1039200000F00400019001984FF400700290022012
:103930000390032005902046FEF734FF4FF480608B
:10394000CDE90206204629460496FEF72BFF06B075
:1039500070BD0000FEE700002DE9F04140F6004494
:10396000C4F2010417460E46054620464FF4804136
:1039700000229846FFF724F82A2001F045FC204653
:103980004FF480410122FFF71BF80135A8B2000A6D
:1039900001F03AFCE8B201F037FC7D1CA8B2000A45
:1039A00001F032FCE8B201F02FFC20464FF48041D8
:1039B0000022FFF705F82B2001F026FC20464FF4EB
:1039C00080410122FEF7FCFFB51CA8B2000A01F0FD
:1039D0001BFCE8B201F018FC08F10205A8B2000ACD
:1039E00001F012FCE8B201F00FFC20464FF48041D8
:1039F0000022FEF7E5FF2C2001F006FC20464FF4E4
:103A000080410122BDE8F041FEF7DABF2DE9F04F19
:103A100085B08346101AB2EB0B08DDF8389004939A
:103A20000D46039218BF4FF0FF38002882464FF032
:103A300000065C464FF0000748BFC0F1000A0128AD
:103A4000A8BF4FF0010800BFA0B2294602462B468E
:103A5000FFF782FF484601F0CDFB0137002EB8B2D8
:103A60000CBF564444448245EED20499CDF80880F8
:103A7000481B4F1B18BF4FF0FF37002880464FF000
:103A800000092C464FF0000648BFC0F1000801288D
:103A9000A8BF0127A1B258465A460B46FFF75CFF64
:103AA0000E9801F0A7FB0136B9F1000FB0B20CBFC0
:103AB000C1443C448045EDD20197049FDDF8089055
:103AC000002600241FFA8BF0394602463B46FFF7DA
:103AD00043FF0E9801F08EFB0134002EA0B20CBF04
:103AE0005644CB448245EDD2039FDDF80490DDF8C7
:103AF00038A00024002600BFA9B238463A460B463B
:103B0000FFF72AFF504601F075FB0136002CB0B2DA
:103B10000CBF44444D448045EED205B0BDE8F08F63
:103B20002DE9F04381B00E468146501E591E98463D
:103B3000154682B28BB248463146FFF70DFF464527
:103B400038BFA9450DD2089C4F4600BF204601F062
:103B500051FB0137B8B2A842F8D30136B0B24045A4
:103B6000F2D301B0BDE8F08310B540F60044C4F2D2
:103B7000010420464FF400410022FEF721FF64209B
:103B8000FEF7C8FC20464FF400410122FEF718FF63
:103B90006420FEF7BFFC20464FF480510122FEF75F
:103BA0000FFF6420FEF7B6FC20464FF48041002250
:103BB000FEF706FF112001F027FB20464FF480415D
:103BC0000122FEF7FDFE7820FEF7A4FC20464FF40C
:103BD00080410022FEF7F4FEB12001F015FB2046E3
:103BE0004FF480410122FEF7EBFE052001F00CFBB3
:103BF0003C2001F009FB3C2001F006FB20464FF47D
:103C000080410022FEF7DCFEB22001F0FDFA2046E2
:103C10004FF480410122FEF7D3FE052001F0F4FAB3
:103C20003C2001F0F1FA3C2001F0EEFA20464FF47E
:103C300080410022FEF7C4FEB32001F0E5FA2046E1
:103C40004FF480410122FEF7BBFE052001F0DCFAB3
:103C50003C2001F0D9FA3C2001F0D6FA052001F011
:103C6000D3FA3C2001F0D0FA3C2001F0CDFA2046F6
:103C70004FF480410022FEF7A3FEB42001F0C4FA05
:103C800020464FF480410122FEF79AFE032001F006
:103C9000BBFA20464FF480410022FEF791FEC0207F
:103CA00001F0B2FA20464FF480410122FEF788FE6F
:103CB000282001F0A9FA082001F0A6FA042001F05A
:103CC000A3FA20464FF480410022FEF779FEC1207E
:103CD00001F09AFA20464FF480410122FEF770FE6F
:103CE000C02001F091FA20464FF480410022FEF7F7
:103CF00067FEC22001F088FA20464FF4804101227D
:103D0000FEF75EFE0D2001F07FFA002001F07CFA44
:103D100020464FF480410022FEF752FEC32001F0FE
:103D200073FA20464FF480410122FEF749FE8D20B0
:103D300001F06AFA2A2001F067FA20464FF4804128
:103D40000022FEF73DFEC42001F05EFA20464FF44B
:103D500080410122FEF734FE8D2001F055FAEE205D
:103D600001F052FA20464FF480410022FEF728FE6F
:103D7000C52001F049FA20464FF480410122FEF7A8
:103D80001FFE1A2001F040FA20464FF48041002225
:103D9000FEF716FE362001F037FA20464FF4804138
:103DA0000122FEF70DFEA02001F02EFA20464FF46E
:103DB00080410022FEF704FEE02001F025FA2046B3
:103DC0004FF480410122FEF7FBFD042001F01CFAB4
:103DD000222001F019FA072001F016FA0A2001F05A
:103DE00013FA2E2001F010FA302001F00DFA2520F0
:103DF00001F00AFA2A2001F007FA282001F004FA5B
:103E0000262001F001FA2E2001F0FEF93A2001F0FF
:103E1000FBF9002001F0F8F9012001F0F5F9032089
:103E200001F0F2F9132001F0EFF920464FF4804140
:103E30000022FEF7C5FDE12001F0E6F920464FF42F
:103E400080410122FEF7BCFD042001F0DDF91620BF
:103E500001F0DAF9062001F0D7F90D2001F0D4F9CC
:103E60002D2001F0D1F9262001F0CEF9232001F018
:103E7000CBF9272001F0C8F9272001F0C5F925204A
:103E800001F0C2F92D2001F0BFF93B2001F0BCF98F
:103E9000002001F0B9F9012001F0B6F9042001F089
:103EA000B3F9132001F0B0F920464FF4804100220D
:103EB000FEF786FD3A2001F0A7F920464FF4804135
:103EC0000122FEF77DFD052001F09EF920464FF40A
:103ED00080410022FEF774FD292001F095F920466B
:103EE0004FF480410122BDE81040FEF769BD00009B
:103EF0002DE9F04F85B00F9E81464FEA56083009F4
:103F0000049315468B4601215FEA487218BF01EB06
:103F1000161000FB06F409EB56000BEB0601013806
:103F2000013982B28BB248465946FFF715FD002C85
:103F300000F09581A6F10C00C1B2800140EA910029
:103F4000C2B2052A00F28B810120904010F02B0FA5
:103F500000F085811099A5F12000002949F2DE5E6C
:103F600047F6AA1347F61E6C48F20E41C0B2C0F6DF
:103F7000000EC0F60003C0F6000CC0F6000103926C
:103F800000F0C48000EB400603EB860501EB06134E
:103F9000002702930CEB00130EEB80104E460193AA
:103FA000009000BF032A07D0012A03D028462AB177
:103FB000009802E0019800E00298384490F800A0D0
:103FC0005FEACA700AD0B0B21FFA8BF102460B4604
:103FD000FFF7C2FC049801F00DF9039A701C80B23F
:103FE000A0EB0901414500F087805FEA8A7109D59D
:103FF0001FFA8BF102460B46FFF7AEFC049801F066
:10400000F9F8039AB01C80B2A0EB0901414573D0C6
:104010005FEA4A7109D51FFA8BF102460B46FFF79A
:104020009BFC049801F0E6F8039AF01C80B2A0EB28
:104030000901414560D05FEA0A7109D51FFA8BF189
:1040400002460B46FFF788FC049801F0D3F8039A68
:10405000301D80B2A0EB090141454DD05FEACA6135
:1040600009D51FFA8BF102460B46FFF775FC049841
:1040700001F0C0F8039A701D80B2A0EB0901414520
:104080003AD05FEA8A6109D51FFA8BF102460B46E6
:10409000FFF762FC049801F0ADF8039AB01D80B2FE
:1040A000A0EB0901414527D05FEA4A6109D51FFA13
:1040B0008BF102460B46FFF74FFC049801F09AF88B
:1040C000039AF01D80B2A0EB0901414514D04FFACC
:1040D0008AF1B1F1FF3F09DC1FFA8BF102460B4672
:1040E000FFF73AFC049801F085F8039A0836B0B25D
:1040F000A0EB0900404502D10BF1010B4E46013700
:10410000013C05F101057FF44DAFA8E0DDF838A0D2
:1041100000EB40010EEB80170026029103EB8101BA
:104120000CEB00104FF0000B0191009082B1DDF814
:104130001090012A0AD0032A38460DD148F20E40C9
:10414000029AC0F6000000EB021004E0009802E0C2
:104150000198DDF8109030440578E807484608BF1C
:10416000504601F047F80BF10100C0B2B0FBF8F186
:1041700001FB1800002869D0A807484658BF5046E0
:1041800001F038F80BF10200C0B2B0FBF8F101FB0E
:10419000180000285AD06807484658BF504601F01A
:1041A00029F80BF10300C0B2B0FBF8F101FB1800D5
:1041B00000284BD02807484658BF504601F01AF84F
:1041C0000BF10400C0B2B0FBF8F101FB1800E8B33A
:1041D000E806484658BF504601F00CF80BF10500C0
:1041E000C0B2B0FBF8F101FB180078B3A80648464E
:1041F00058BF504600F0FEFF0BF10600C0B2B0FB06
:10420000F8F101FB180008B36806484658BF50464D
:1042100000F0F0FF0BF10700C0B2B0FBF8F101FBBA
:10422000180098B168B2002858BFD14648460BF133
:10423000080500F0DFFFE8B2B0FBF8F101FB180B56
:10424000BBF1000F18BFAB4602E000BF4FF0000B00
:10425000039A0136013C07F101077FF467AF05B00F
:10426000BDE8F08F2DE9F04F83B098461378002B0E
:1042700062D00D9C0646A4F10C008B46C1B28001B1
:1042800040EA9100C0B2052856D8DDF83890DDF834
:1042900030A0DFE800F0032B5117513F951E00BFFF
:1042A000AF1CB0B259463A464346CDE900A4CDF81A
:1042B000089000F045F82879264400283D46EFD1C3
:1042C0003AE000BF951E00BFAF1CB0B259463A4657
:1042D0004346CDE900A4CDF8089000F0D3FB28793F
:1042E000264400283D46EFD126E000BF971E00BFC0
:1042F000BD1CB0B259462A464346CDE900A4CDF8CC
:10430000089000F0F1F93879264400282F46EFD1C3
:1043100012E000BF951E00BFAF1CB0B259463A462E
:104320004346CDE900A4CDF8089000F07FFD287940
:10433000264400283D46EFD103B0BDE8F08F0000D1
:104340002DE9F04F87B0119C02938A46E3080121C2
:104350001746620718BF01EBD40303FB04F14AF6CA
:10436000D155621E0029C0F600050691039000F0A9
:10437000D18012980497002800F0EE80039E0192ED
:1043800000221A200CE000BF059A049F01324AF671
:10439000D1552A2AC0F600054FF01A0000F0A0817E
:1043A0005043285C397805928842EDD11A2002FBEF
:1043B0000058797898F801008842E5D10199881968
:1043C000514482B28BB2B0B21FFA8AF1FFF7C4FA3D
:1043D000DDE9027508F1020B00204FF0000800BF74
:1043E0001BF800905FEAC97009D0B0B21FFA8AF1D9
:1043F00002460B46FFF7B0FA384600F0FBFE701C91
:1044000080B2411BA14279D05FEA897108D51FFAB9
:104410008AF102460B46FFF79FFA384600F0EAFEA3
:10442000B01C80B2411BA14268D05FEA497108D537
:104430001FFA8AF102460B46FFF78EFA384600F063
:10444000D9FEF01C80B2411BA14257D05FEA09712E
:1044500008D51FFA8AF102460B46FFF77DFA384667
:1044600000F0C8FE301D80B2411BA14246D05FEA79
:10447000C96108D51FFA8AF102460B46FFF76CFAAC
:10448000384600F0B7FE701D80B2411BA14235D006
:104490005FEA896108D51FFA8AF102460B46FFF7E9
:1044A0005BFA384600F0A6FEB01D80B2411BA14267
:1044B00024D05FEA496108D51FFA8AF102460B460B
:1044C000FFF74AFA384600F095FEF01D80B2411B16
:1044D000A14213D04FFA89F1B1F1FF3F08DC1FFA76
:1044E0008AF102460B46FFF737FA384600F082FEA3
:1044F0000836B0B2401BA04203D100BF0AF1010A46
:104500002E4608F1010806995FFA88F081423FF6CD
:1045100067AF39E7104402EB0A014FF6BC34CFF61F
:10452000FF741FFA80F88EB203E000BF1A3400F067
:10453000D780281990F844143A789142F6D190F82F
:10454000450479788842F1D1039851464246334672
:10455000FFF702FAEAE700BF0398109E104402EB4F
:104560000A0180B200221A23019088B24FF000099C
:1045700000900BE0059A049F01324AF6D1552A2A91
:10458000C0F600054FF01A0300F0AA8002FB03F00A
:10459000285C397805928842ECD102FB035879787F
:1045A00098F801008842E5D10398DDE900325146D0
:1045B000FFF7D2F9029D08F1020700204FF0000832
:1045C00017F800B05FEACB70284608BF304600F00D
:1045D00011FE09F10100C0B2B0FBF4F101FB1400BF
:1045E000002871D05FEA8B70284658BF304600F033
:1045F00001FE09F10200C0B2B0FBF4F101FB1400AE
:10460000002861D05FEA4B70284658BF304600F062
:10461000F1FD09F10300C0B2B0FBF4F101FB14009D
:10462000002851D05FEA0B70284658BF304600F092
:10463000E1FD09F10400C0B2B0FBF4F101FB14008C
:10464000002841D05FEACB60284658BF304600F0D2
:10465000D1FD09F10500C0B2B0FBF4F101FB14007B
:1046600090B35FEA8B60284658BF304600F0C2FD29
:1046700009F10600C0B2B0FBF4F101FB140018B35D
:104680005FEA4B60284658BF304600F0B3FD09F1A1
:104690000700C0B2B0FBF4F101FB1400A0B14FFA67
:1046A0008BF00028284609F1080B58BF304600F06F
:1046B000A1FD5FFA8BF0B0FBF4F101FB1409B9F135
:1046C000000F18BFD94601E04FF0000908F10108BA
:1046D00006995FFA88F081423FF672AF4AE700BF61
:1046E00007B0BDE8F08F00002DE9F04F87B0119CB6
:1046F0008246E008029317468B460121620718BFE5
:1047000001EBD40060434BF21525611E0028C0F672
:104710000005069000F0D68012980497002800F05B
:10472000F3800020564603910AE000BF0598049FDD
:1047300001304BF215252B28C0F6000500F09E81B4
:10474000059000EB001015F810103A789142EDD169
:1047500005EB400898F8010079788842E6D1039982
:104760008819594482B28BB2B0B21FFA8BF1FFF7AD
:10477000F3F8029D08F1020700204FF0000800BF87
:1047800017F800905FEAC97009D0B0B21FFA8BF138
:1047900002460B46FFF7E0F8284600F02BFD701CA0
:1047A00080B2A0EB0A01A14200F080805FEA89712B
:1047B00008D51FFA8BF102460B46FFF7CDF82846C5
:1047C00000F018FDB01C80B2A0EB0A01A1426DD030
:1047D0005FEA497108D51FFA8BF102460B46FFF7D5
:1047E000BBF8284600F006FDF01C80B2A0EB0A01E1
:1047F000A1425BD05FEA097108D51FFA8BF102462E
:104800000B46FFF7A9F8284600F0F4FC301D80B2F3
:10481000A0EB0A01A14249D05FEAC96108D51FFA9D
:104820008BF102460B46FFF797F8284600F0E2FCB2
:10483000701D80B2A0EB0A01A14237D05FEA896106
:1048400008D51FFA8BF102460B46FFF785F828467C
:1048500000F0D0FCB01D80B2A0EB0A01A14225D02F
:104860005FEA496108D51FFA8BF102460B46FFF754
:1048700073F8284600F0BEFCF01D80B2A0EB0A01E0
:10488000A14213D04FFA89F1B1F1FF3F08DC1FFAC2
:104890008BF102460B46FFF75FF8284600F0AAFCB2
:1048A0000836B0B2A0EB0A00A04202D10BF1010B16
:1048B000564608F1010806995FFA88F081423FF6F2
:1048C0005FAF33E701EB0A0059444FF64A24CFF6B5
:1048D000FF741FFA80F88EB203E000BF223400F0AC
:1048E000CD80281990F8B6153A789142F6D190F813
:1048F000B70579788842F1D1504659464246334649
:10490000FFF72AF8EAE700BF01EB0A00594480B23A
:104910000022019088B20026009009E0039A049FCB
:1049200001324BF215252B2AC0F6000500F0A680B7
:1049300002EB0210039215F810103A789142EDD173
:1049400005EB400898F8010079788842E6D1DDE966
:10495000003250465946FEF7FFFF08F10200029D63
:10496000109F059000204FF0000800BF059911F836
:1049700000905FEAC970284608BF384600F03AFC4C
:10498000701CC0B2B0FBF4F101FB140000286BD026
:104990005FEA8970284658BF384600F02BFCB01CEF
:1049A000C0B2B0FBF4F101FB140000285CD05FEA58
:1049B0004970284658BF384600F01CFCF01CC0B2B5
:1049C000B0FBF4F101FB140000284DD05FEA097040
:1049D000284658BF384600F00DFC301DC0B2B0FB71
:1049E000F4F101FB140000283ED05FEAC9602846BC
:1049F00058BF384600F0FEFB701DC0B2B0FBF4F1AA
:104A000001FB140080B35FEA8960284658BF38462E
:104A100000F0F0FBB01DC0B2B0FBF4F101FB1400DC
:104A200010B35FEA4960284658BF384600F0E2FB01
:104A3000F01DC0B2B0FBF4F101FB1400A0B14FFABD
:104A400089F00028284606F1080958BF384600F0CA
:104A5000D1FB5FFA89F0B0FBF4F101FB1406002EE4
:104A600018BF4E4601E000BF002608F10108069974
:104A70005FFA88F081423FF679AF4FE707B0BDE8B3
:104A8000F08F00002DE9F04F87B0119C02938A4609
:104A9000E30801211746620718BF01EBD40303FBAB
:104AA00004F14BF2CB75621E0029C0F60005069199
:104AB000039000F0D18012980497002800F0EE8057
:104AC000039E019200224A200CE000BF059A049F39
:104AD00001324BF2CB752A2AC0F600054FF04A008E
:104AE00000F0A0815043285C397805928842EDD1CE
:104AF0004A2002FB0058797898F801008842E5D1F5
:104B000001998819514482B28BB2B0B21FFA8AF16E
:104B1000FEF722FFDDE9027508F1020B00204FF0DD
:104B2000000800BF1BF800905FEAC97009D0B0B25E
:104B30001FFA8AF102460B46FEF70EFF384600F0D8
:104B400059FB701C80B2411BA14279D05FEA897188
:104B500008D51FFA8AF102460B46FEF7FDFE3846DD
:104B600000F048FBB01C80B2411BA14268D05FEA54
:104B7000497108D51FFA8AF102460B46FEF7ECFE92
:104B8000384600F037FBF01C80B2411BA14257D0E1
:104B90005FEA097108D51FFA8AF102460B46FEF753
:104BA000DBFE384600F026FB301D80B2411BA142DF
:104BB00046D05FEAC96108D51FFA8AF102460B4662
:104BC000FEF7CAFE384600F015FB701D80B2411B8F
:104BD000A14235D05FEA896108D51FFA8AF1024601
:104BE0000B46FEF7B9FE384600F004FBB01D80B25C
:104BF000411BA14224D05FEA496108D51FFA8AF11E
:104C000002460B46FEF7A8FE384600F0F3FAF01D08
:104C100080B2411BA14213D04FFA89F1B1F1FF3F9D
:104C200008DC1FFA8AF102460B46FEF795FE38466D
:104C300000F0E0FA0836B0B2401BA04203D100BF3A
:104C40000AF1010A2E4608F1010806995FFA88F078
:104C500081423FF667AF39E7104402EB0A014FF299
:104C6000DC34CFF6FF741FFA80F88EB203E000BF89
:104C70004A3400F0D780281990F8241C3A789142E1
:104C8000F6D190F8250C79788842F1D103985146F5
:104C900042463346FEF760FEEAE700BF0398109EE7
:104CA000104402EB0A0180B200224A23019088B22C
:104CB0004FF0000900900BE0059A049F01324BF27F
:104CC000CB752A2AC0F600054FF04A0300F0AA80EF
:104CD00002FB03F0285C397805928842ECD102FB94
:104CE0000358797898F801008842E5D10398DDE906
:104CF00000325146FEF730FE029D08F10207002007
:104D00004FF0000817F800B05FEACB70284608BFE4
:104D1000304600F06FFA09F10100C0B2B0FBF4F1C7
:104D200001FB1400002871D05FEA8B70284658BF41
:104D3000304600F05FFA09F10200C0B2B0FBF4F1B6
:104D400001FB1400002861D05FEA4B70284658BF71
:104D5000304600F04FFA09F10300C0B2B0FBF4F1A5
:104D600001FB1400002851D05FEA0B70284658BFA1
:104D7000304600F03FFA09F10400C0B2B0FBF4F194
:104D800001FB1400002841D05FEACB60284658BFE1
:104D9000304600F02FFA09F10500C0B2B0FBF4F183
:104DA00001FB140090B35FEA8B60284658BF304681
:104DB00000F020FA09F10600C0B2B0FBF4F101FBEB
:104DC000140018B35FEA4B60284658BF304600F025
:104DD00011FA09F10700C0B2B0FBF4F101FB1400B5
:104DE000A0B14FFA8BF00028284609F1080B58BFF4
:104DF000304600F0FFF95FFA8BF0B0FBF4F101FBF5
:104E00001409B9F1000F18BFD94601E04FF00009AD
:104E100008F1010806995FFA88F081423FF672AF07
:104E20004AE700BF07B0BDE8F08F00002DE9F04F62
:104E300087B0119C8346E00817460D4601216207A2
:104E400018BF01EBD4009A4660434CF2EF33611E69
:104E50000028C0F60003069000F0CC80129804975A
:104E6000002800F0E78000205E4603910AE000BFC2
:104E70000598049F01304CF2EF332A28C0F6000356
:104E800000F09081059000EB801013F810103A7834
:104E90009142EDD103EB400898F8010079788842FF
:104EA000E6D103998819294482B28BB2B0B2A9B273
:104EB000FEF752FD08F1020700204FF0000800BF86
:104EC00017F800905FEAC97008D0B0B2A9B20246E4
:104ED0000B46FEF741FD504600F08CF9701C80B285
:104EE000A0EB0B01A14279D05FEA897107D5A9B285
:104EF00002460B46FEF730FD504600F07BF9B01C31
:104F000080B2A0EB0B01A14268D05FEA497107D5DE
:104F1000A9B202460B46FEF71FFD504600F06AF9A3
:104F2000F01C80B2A0EB0B01A14257D05FEA0971DF
:104F300007D5A9B202460B46FEF70EFD504600F01B
:104F400059F9301D80B2A0EB0B01A14246D05FEAB7
:104F5000C96107D5A9B202460B46FEF7FDFC5046D3
:104F600000F048F9701D80B2A0EB0B01A14235D0D2
:104F70005FEA896107D5A9B202460B46FEF7ECFC51
:104F8000504600F037F9B01D80B2A0EB0B01A142F2
:104F900024D05FEA496107D5A9B202460B46FEF765
:104FA000DBFC504600F026F9F01D80B2A0EB0B01AF
:104FB000A14213D04FFA89F1B1F1FF3F07DCA9B24A
:104FC00002460B46FEF7C8FC504600F013F90836BF
:104FD000B0B2A0EB0B00A04202D100BF01355E468B
:104FE00008F1010806995FFA88F081423FF668AF40
:104FF0003EE700BF01EB0B0029445C1C2A261FFA88
:1050000080F81FFA81F904E0013E04F1820400F007
:10501000C98014F8010C39788842F5D12078797864
:105020008842F1D15846294642464B46FEF794FC49
:10503000EAE700BF01EB0B00294480B20022029096
:1050400088B20026019009E0039A049F01324CF2D5
:10505000EF332A2AC0F6000300F0A48002EB82108E
:10506000039213F810103A789142EDD103EB400807
:1050700098F8010079788842E6D1DDE90132584696
:105080002946FEF769FC08F10200109F05900020F8
:105090004FF00008059911F800905FEAC97050467A
:1050A00008BF384600F0A6F8701CC0B2B0FBF4F19F
:1050B00001FB140000286BD05FEA8970504658BF8E
:1050C000384600F097F8B01CC0B2B0FBF4F101FB19
:1050D000140000285CD05FEA4970504658BF38463B
:1050E00000F088F8F01CC0B2B0FBF4F101FB140032
:1050F00000284DD05FEA0970504658BF384600F08E
:1051000079F8301DC0B2B0FBF4F101FB14000028A7
:105110003ED05FEAC960504658BF384600F06AF892
:10512000701DC0B2B0FBF4F101FB140080B35FEA64
:105130008960504658BF384600F05CF8B01DC0B2D8
:10514000B0FBF4F101FB140010B35FEA4960504674
:1051500058BF384600F04EF8F01DC0B2B0FBF4F175
:1051600001FB1400A0B14FFA89F00028504606F167
:10517000080958BF384600F03DF85FFA89F0B0FBE7
:10518000F4F101FB1406002E18BF4E4601E000BFEB
:10519000002608F1010806995FFA88F081423FF67F
:1051A00079AF51E707B0BDE8F08F00002DE9F04F6F
:1051B00083B09B461378CBB1DDE90C9ADDF83880DB
:1051C0000D4606464FEA5A07541E00BFB0B2DAB287
:1051D00029465B46CDE9009ACDF80880FEF788FEA7
:1051E000A3783E44002B04F10104EFD103B0BDE8E5
:1051F000F08F000010B50446000A00F005F8E0B298
:10520000BDE81040AFF3008070B540F60005C4F271
:10521000010505F58064064620464FF40051002242
:10522000FDF7CEFB28464FF480510022FDF7C8FB66
:10523000F20928464FF40061FDF7C2FB28464FF4FF
:1052400080510122FDF7BCFB28464FF4805100221B
:10525000FDF7B6FBC6F3801228464FF40061FDF758
:10526000AFFB28464FF480510122FDF7A9FB2846E9
:105270004FF480510022FDF7A3FBC6F340122846ED
:105280004FF40061FDF79CFB28464FF4805101224A
:10529000FDF796FB28464FF480510022FDF790FB66
:1052A000C6F3001228464FF40061FDF789FB28463B
:1052B0004FF480510122FDF783FB28464FF48051C3
:1052C0000022FDF77DFBC6F3C00228464FF40061C3
:1052D000FDF776FB28464FF480510122FDF770FB65
:1052E00028464FF480510022FDF76AFBC6F3800286
:1052F00028464FF40061FDF763FB28464FF48051C8
:105300000122FDF75DFB28464FF480510022FDF796
:1053100057FBC6F3400228464FF40061FDF750FBEF
:1053200028464FF480510122FDF74AFB28464FF4EE
:1053300080510022FDF744FB06F0010228464FF49D
:105340000061FDF73DFB28464FF480510122FDF737
:1053500037FB20464FF400510122BDE87040FDF7B5
:105360002FBB0000B0B584B040F2346042F200417F
:10537000C2F20000C4F2010100234FF48072012444
:105380004FF46025C0E90013052104730375C5615E
:1053900082600161FCF7B2FD002818BFFBF712FF25
:1053A0000720039040F234600225C2F2000001A9F8
:1053B000CDE90154FCF7E0FC002818BFFBF702FF21
:1053C0000420CDE9010540F23460C2F2000001A9D9
:1053D000FCF7D2FC002818BFFBF7F4FE0620019072
:1053E0000320029040F23460C2F2000001A9FCF7F1
:1053F000C3FC002818BFFBF7E5FE0820019004203D
:10540000029040F23460C2F2000001A9FCF7B4FC43
:10541000002818BFFBF7D6FE092001900520029056
:1054200040F23460C2F2000001A9FCF7A5FC00289C
:1054300018BFFBF7C7FE40F23460C2F20000FCF771
:105440000DFC04B0B0BD000080B582B041F2140084
:10545000C4F202000168002241F00101016000680D
:10546000002100F00100019001980B20FDF72EFBB8
:105470000B2002B0BDE88040FDF716BB2DE9F047D8
:1054800086B04FF0000841F21800CDE90488CDE95C
:105490000288C4F20200016840F6004941F01001A0
:1054A00001600168C4F2010901F010010191019944
:1054B0000168A9F5806541F02001016001680022C2
:1054C00001F0200101910199016841F0040101609E
:1054D000016801F0040101910199016841F008019E
:1054E0000160006841F6AB0100F0080001900198EE
:1054F0002846FDF765FA48464FF479410022FDF74A
:105500005FFA4FF4604002AE02904FF0030A09F5D3
:1055100080603146CDF80CA0FDF744F9AB20029035
:1055200001270224284631460397CDE90444FDF7BC
:1055300039F91C20CDE9020A48463146FDF732F917
:105540004FF4C060CDE90208484631460497FDF7A4
:1055500029F94FF40060CDE9020748463146CDE90C
:10556000044AFDF71FF94FF4704002A981E8810158
:10557000484631460594FDF715F94FF40140CDE951
:10558000020A28463146FDF70DF94FF4C05002A932
:1055900081E88101284631460594FDF703F9202072
:1055A00002900020C1F22100CDE9030748463146B0
:1055B000FDF7F8F84FF48070CDE902074846314610
:1055C000CDE90444FDF7EEF8172000210022FDF795
:1055D0007DFA1720FDF768FA06B0BDE8F0870000F5
:1055E00080B58CB040F2A86040F600020021C2F203
:1055F0000000C4F200024FF6FF73C0E90021C0E9C9
:10560000021301220623CDE9001101618161CDE978
:105610000321CDE90521CDE90731CDE9092103A910
:105620000B93FDF7EDFE002818BFFBF7CBFD40F212
:10563000A860C2F200006946FDF7A2FE002818BF6C
:10564000FBF7C0FD0CB080BD80B540F2F06043F6C2
:105650000001C2F20000C4F2010100234FF00C0C63
:105660004FF4E13280E80E00C0E90333C0E905C31E
:10567000C361FEF7BDF8002808BF80BDBDE88040CB
:10568000FBF7A0BDFEE700002DE9F0418CB040F231
:105690002027C2F200077878BC7840F218054FF650
:1056A000FF76C2F2000528B1062C1ED90CB0BDE869
:1056B000F08100BF00200021A022802300964FF03F
:1056C0000008FEF72DFA0120787004EB840005EB4A
:1056D000C0021020CDE900600A2028210023CDF867
:1056E0000880FEF7BFFD062CE0D804EB840005EB34
:1056F000C00494F820102069012904F121050BD081
:1057000081B901F007FF03461CA104A822460095B9
:10571000FAF7A2FD10E000BF01F042FDCDE9000163
:1057200013A104E001F03CFDCDE9000116A104A89D
:1057300022460295FAF790FD1F255A202821A02223
:1057400038230095FEF7ECF92046FAF7AAFE04A9E3
:105750000A1810200027CDE900505A2028214FF6C2
:10576000FF730297FFF722FD0CB0BDE8F08100BF88
:10577000257320252E3166202573000025732025F2
:105780006420257300000000257320252E3266203A
:10579000257300002DE9F04F83B0FBF7C3FB002415
:1057A00000200021A02280230094FEF7B9F94DF6D5
:1057B000F06700200021342227230097FEF7B0F97C
:1057C0004BF2F06635200021682227230096FEF771
:1057D000A7F948F2F06B6A200021A0222723CDF818
:1057E00000B0FEF79DF948F2BB5A00202821342270
:1057F0004F23CDF800A0FEF793F94DF61849352058
:10580000282168224F23CDF80090FEF789F94BF646
:105810001B486A202821A0224F23CDF80080FEF7E4
:105820007FF910254EA20320032140F2CF13CDE9CA
:1058300000750294FEF716FD4BA24020032140F2B2
:10584000CF13CDE900650294FEF70CFD48A26D2050
:10585000032140F2CF13CDE900B50294FEF702FD1B
:1058600045A20B202B2140F2CF13CDE900A50294D5
:10587000FEF7F8FC42A238202B2140F2CF13CDE9ED
:1058800000950294FEF7EEFC3FA275202B2140F21A
:10589000CF13CDE900850294FEF7E4FC00205621E9
:1058A000A02280230094FEF73BF939A20320562161
:1058B0004FF6E073CDE900450294FFF777FC35A27F
:1058C000402056214FF6E073CDE900450294FEF7E3
:1058D000C9FC32A2612056214FF6E073CDE90045A4
:1058E0000294FFF763FC4FF6FF7400206D21252220
:1058F0007F230094FEF78AF82520712127227B233D
:105900000094FEF783F828206D214D227F23009418
:10591000FEF77CF84D2071214F227B230094FEF787
:1059200075F850206D2175227F230094FEF76EF8E4
:105930007520712177227B230094FEF767F8782089
:105940006D219D227F230094FEF760F89D20712138
:105950009F227B230094FEF759F803B0BDE8F08F37
:10596000C2F6B3E5A2D90000BCE4B8F40000000020
:10597000C2F6B3E5A2DA0000B5C8B4FD000000002D
:10598000D7DCB4CECAFD0000B4CECAFD00000000D2
:10599000563A0000B5E7C1F7000000003A000000E9
:1059A0002DE9F04F95B040F22021C2F20001C878F5
:1059B000497800EB8006721DD2B2092A40F2000736
:1059C00028BF09220129C2F2000703924CD179783D
:1059D000814249D140F220213878C2F200018A7810
:1059E000C1B28A4200F00D81FF294FF6FF7B00F023
:1059F0005781F2B29142C0F05381039A914280F0F4
:105A00004F81052928BF0538192148430830C4B201
:105A1000A01E04F1100381B20020A022CDF800B036
:105A20000025FEF77DF83878062800F2ED8040F278
:105A3000180A00EB8000C2F2000A0AEBC00292F8DA
:105A400020101069012902F1210500F0EF800029E2
:105A500040F0F68001F05EFD4AF6B6510246C0F60F
:105A600000010CA82B46F5E04FF6FF7000900020D7
:105A70000021A02280234FF00009FEF751F803987F
:105A80005FFA86FB40F220278345C2F2000780F0D0
:105A9000AD8040F218010BEB8B00C2F2000101EB6C
:105AA000C004CD260DF1300A4FF0100820E000BFF1
:105AB000B8784FF6FF71834508BF1F21CDE9001864
:105AC00083454FF000034FF00A002946224608BFE5
:105AD0004FF6FF73CDF80890FEF7C4FB0BF1010BF6
